:100000000C948B000C94AA000C94AA000C94AA00E7
:100010000C94AA000C94AA000C94AA000C94AA00B8
:100020000C94AA000C94AA000C94AA000C94AA00A8
:100030000C94AA000C94C3010C94AA000C94AA007E
:100040000C94AA000C94AA000C94AA000C94AA0088
:100050000C94AA000C94AA000C94AA000C94AA0078
:100060000C94AA000C94AA000C94AA000C94AA0068
:100070000C94AA000C94AA000C94AA000C94AA0058
:100080000C94AA000C94AA000C94AA0051028302BA
:100090008302830283028302830283028302830238
:1000A0008302830283028302830283028302830228
:1000B0008302830283028302830283028302830218
:1000C0008302830283028302830283028302830208
:1000D00083028002830283028302830283028302FB
:1000E0007B02830283028302830283027E02540224
:1000F00057025A025D0260026302660269026C02E4
:1001000083028302830283028302830283026F02DB
:1001100072027502780211241FBECFEFD0E4DEBF59
:10012000CDBF11E0A0E0B1E0E6E6F5E000E00BBFF6
:1001300002C007900D92A231B107D9F711E0A2E1F8
:10014000B1E001C01D92A731B107E1F70E943F0263
:100150000C94B1020C940000CF93C82F8A3019F48C
:100160008DE00E94AC009091C00095FFFCCFC09341
:10017000C60080E090E0CF910895442349F021E04B
:1001800030E002C0220F331F6A95E2F7822B0895F8
:1001900021E030E002C0220F331F6A95E2F720957C
:1001A0008223089521E030E002C0220F331F6A95B8
:1001B000E2F78223089540E064E08FEF0E94BD00E3
:1001C00082B9000080B160E080950E94D200811168
:1001D00080C080B161E080950E94D20081117BC017
:1001E00080B162E080950E94D200811176C080B11A
:1001F00063E080950E94D200811171C040E065E00B
:100200008FEF0E94BD0082B9000080B160E0809550
:100210000E94D200811165C080B161E080950E948A
:10022000D200811160C080B162E080950E94D2004E
:1002300081115BC080B163E080950E94D200811182
:1002400056C040E066E08FEF0E94BD0082B900001A
:1002500080B160E080950E94D20081114AC080B1D7
:1002600061E080950E94D200811145C080B162E0BA
:1002700080950E94D200811140C080B163E08095DA
:100280000E94D20081113BC040E067E08FEF0E94E6
:10029000BD0082B9000080B160E080950E94D2006C
:1002A00081112FC080B161E080950E94D200811140
:1002B0002AC080B162E080950E94D200811125C0E1
:1002C00080B163E080950E94D2008823F9F084E435
:1002D000089581E3089584E3089587E308958AE209
:1002E000089582E3089585E3089588E3089580E3FF
:1002F000089583E3089586E3089589E3089583E2EA
:10030000089581E4089582E4089583E40895609354
:100310000E0170930F01809310019093110160936F
:1003200012017093130180931401909315010895A5
:100330008BE0809381008DE790E09093890080931B
:10034000880082E080936F001092850010928400F4
:1003500080910E0190910F01A0911001B0911101B7
:100360008093120190931301A0931401B09315018F
:100370008FB780688FBF089510928100089581E043
:100380008093160108951F920F920FB60F921124B9
:100390000BB60F922F933F934F935F936F937F937F
:1003A0008F939F93AF93BF93EF93FF93809112012D
:1003B00090911301A0911401B09115010197A10929
:1003C000B1098093120190931301A0931401B0938B
:1003D0001501892B8A2B8B2B91F40E94BF018091F0
:1003E0000E0190910F01A0911001B0911101809325
:1003F000120190931301A0931401B0931501FF9182
:10040000EF91BF91AF919F918F917F916F915F918C
:100410004F913F912F910F900BBE0F900FBE0F90F9
:100420001F9018950F931F93CF93DF93B62FA72F8D
:10043000F82FE92F022F132FD42FC52F04C0062F1A
:10044000172FD82FC92F6B2F7A2F8F2F9E2F202F4A
:10045000312F4D2F5C2F0E948602B02FA12FFD2F30
:10046000EC2F611571058105910549F7602F712FFA
:100470008D2F9C2FDF91CF911F910F9108958FEFBA
:1004800084B98FE081B915B880EF82B90E94DB0092
:1004900090E085349105B8F5FC01EA5BFF4F0C94C0
:1004A000A8028FE185B9F2CF81E085B9EFCF82E074
:1004B00085B9ECCF83E085B9E9CF84E085B9E6CF93
:1004C00085E085B9E3CF86E085B9E0CF87E085B9DF
:1004D000DDCF88E085B9DACF89E085B9D7CF8AE06A
:1004E00085B9D4CF8BE085B9D1CF8CE085B9CECF9B
:1004F0008DE085B9CBCF8EE085B9C8CF15B8C6CF12
:100500008FE085B9C3CF8BE185B9C0CFA1E21A2EA8
:10051000AA1BBB1BFD010DC0AA1FBB1FEE1FFF1FA7
:10052000A217B307E407F50720F0A21BB30BE40BF7
:10053000F50B661F771F881F991F1A9469F760953E
:100540007095809590959B01AC01BD01CF010895F8
:10055000EE0FFF1F0024001C0BBE0790F691E02D4C
:060560000994F894FFCF9E
:100566000000000200000000AC00000000000100D6
:02057600000083
:00000001FF
